:020000040000FA
:10000000A802001071010000790100007B010000CE
:100010007D0100007F010000810100000000000060
:10002000000000000000000000000000830100004C
:100030008501000000000000870100008901000028
:100040008B0100008B0100008B0100008B01000080
:100050008B0100008B0100008B0100008B01000070
:100060008B0100008B0100008B0100008B01000060
:100070008B0100008B0100008B0100008B01000050
:100080008B0100008B0100008B0100008B01000040
:100090008B0100008B0100002F0700008B01000086
:1000A0008B0100008B0100008B0100008B01000020
:1000B0008B0100008B0100008B0100008B01000010
:1000C0008B0100008B0100008B01000000F002F8A2
:1000D00000F03FF80AA090E8000C82448344AAF1A3
:1000E0000107DA4501D100F034F8AFF2090EBAE8A1
:1000F0000F0013F0010F18BFFB1A43F0010318475C
:100100001C0900003C090000103A24BF78C878C1DF
:10011000FAD8520724BF30C830C144BF04680C600D
:10012000704700000023002400250026103A28BF55
:1001300078C1FBD8520728BF30C148BF0B60704759
:10014000642900F03B83002070471FB51FBD10B528
:1001500010BD00F02CFC1146FFF7F7FF00F0B2FADB
:1001600000F04AFC03B4FFF7F2FF03BC00F04EFCC2
:100170000948804709480047FEE7FEE7FEE7FEE73B
:10018000FEE7FEE7FEE7FEE7FEE7FEE70448054977
:10019000034A054B70470000A9040000CD00000091
:1001A000A8000010A8020010A800001053EA020CDA
:1001B00000F069802DE9F04B4FF00006002B1FBFC7
:1001C000B3FA83F503FA05F424FA05F65E4012BF8C
:1001D0001643B2FA82F502FA05F4C5F120051EBFF6
:1001E00022FA05FC44EA0C04203556EA044C4FEA96
:1001F000144418BF641C4FF000084FF000099042EF
:1002000071EB030C39D3002919BFB1FA81F701FA58
:1002100007F6B0FA80F700FA07F6C7F120071EBF0D
:1002200020FA07FC46EA0C062037B6FBF4FCA7EBE5
:100230000507103F07F01F0BCBF120060CFA0BFB54
:100240002CFA06F644BFB3460026202FA4BF5E4614
:100250004FF0000B5BEA060C08BF4FF0010B19EBE7
:100260000B09ABFB027C48EB0608C01B06FB02CC6B
:100270000BFB03CC71EB0C01C1E70B460246414678
:100280004846BDE8F08B13B54FF000004FF0000179
:10029000AFF30080BDE81C40704700000FB41CB5F0
:1002A000074B06AA7B4469460090059800F013F8B6
:1002B0000020694600F076FB1CBC5DF814FB0000D2
:1002C000FD060000704770477047000001694A1C36
:1002D00002610878704700B58FB0CDE90131002187
:1002E000059105497944CDE903101146684600F0AF
:1002F000A1FA0FB000BD0000E5FFFFFFFFFFFFFF09
:100300002DE9F047B1480068C0F3016003287CD1B3
:10031000AF48006810F0030006D0012833D002284F
:100320005FD003282ED100E000BFA8480068C0F3CA
:10033000074000F101044FF00201A648D0F8880000
:10034000C0F30E0000F10100A1FB0001A24B4FF031
:10035000000CA0FB037901FB039100FB0C1122466A
:1003600063463846FFF722FF05469C480068C0B246
:1003700000F1010422464FF000032846FFF716FF64
:10038000974908605DE091480068C0F3074000F1BC
:1003900001044FF002018F48D0F88800C0F30E002E
:1003A00000F10100A1FB00108E4A4FF0000CA1FBF0
:1003B000027900FB029001FB0C012246634638469D
:1003C000FFF7F4FE054685480068C0B200F101045D
:1003D00022464FF000032846FFF7E8FE80490860F8
:1003E0002FE07A480068C0F3074000F101044FF0A5
:1003F00002017848D0F88800C0F30E0000F1010037
:10040000A1FB00124FF4004000E01BE04FF000039E
:10041000A1FB007902FB009001FB03012246384654
:10042000FFF7C4FE05466D480068C0B200F1010444
:1004300022464FF000032846FFF7B8FE68490860DF
:1004400000BF2FE06248006810F0030006D00128CA
:1004500010D0022819D0032823D100E000BF5F4844
:100460000068C0B200F101005B49B1FBF0F05C49EB
:10047000086016E059480068C0B200F1010059490F
:10048000B1FBF0F0564908600BE054480068C0B278
:1004900000F101004FF40041B1FBF0F05049086059
:1004A00000BF00BFBDE8F08720204F4908604948E1
:1004B000D0F8A00110F0200F05D000BF4A48006816
:1004C00010F0400FFAD00320444908604FF00000BC
:1004D0004049C1F8A801454908604FF001003C4976
:1004E00008604348434908604FF0AA004249086049
:1004F0004FF0550008604FF00100404908604FF090
:10050000AA003D4908604FF055003249C1F88C00FF
:1005100000BF2E48006810F0806FFAD003203749E2
:1005200008604FF0AA002B49C1F88C004FF055002D
:100530003149086000BF2548006800F04070B0F104
:10054000407FF8D123202E4908604FF0AA002149AE
:10055000C1F8AC004FF055002A4908604FF0010087
:10056000294908604FF0AA00264908604FF055005D
:100570001849C1F8AC0000BF2448006810F4806F2F
:10058000FAD00320204908604FF0AA001149C1F8B1
:10059000AC004FF055001B49086000BF1B480068C5
:1005A00000F44070B0F5407FF8D11948194908604F
:1005B0004FF000000749C1F8C8010846006820F460
:1005C000704040F4804008607047000088C00F40D1
:1005D0000CC10F4000C00F4000093D0004C10F4096
:1005E00000000010001BB700A0C10F40ACC10F40BD
:1005F0006300050084C00F408CC00F4080C00F40D6
:10060000A4C00F40ACC00F40A0C00F40A8C00F4016
:10061000DE872804C4C00F40002100E0491C81424D
:10062000FCD3704700B557480068574948615748A0
:10063000007818B94FF00060C86103E04FF0006027
:10064000514988614FF080504F4988611920FFF768
:10065000E3FF4FF080504C49C86147F23050FFF73C
:10066000DBFF00BD00B549480078012801D100201A
:100670000AE047480068302803D045480068202831
:1006800001D1012000E00020424908704048007874
:1006900000F0F0003B49086008460088C00408608C
:1006A000FFF7C0FF3B48007858B93948007800F0A0
:1006B0000F003449086008460088C0050860FFF74D
:1006C000B1FF00BDFFF7F0FEFFF71AFE4FF04050FC
:1006D0003149486031482C49086000202B49087096
:1006E0002F4908600DE02F482D49096850F8210076
:1006F00027490860FFF7B6FF29480068401C2849D1
:100700000860274800680928EDD327482749086072
:100710001020C86016200121814042094FF0E023DB
:1007200003EB8202C2F8001100BF00BFFEE710B564
:100730001E484068C0F30B101D49086008461DA103
:1007400002681D48FFF7AAFD002015490860012036
:100750000E4908700CE0184811490968405C0C49C2
:100760000860FFF77FFF0E480068401C0C490860D6
:1007700011480B490968405C0028ECD10A480B4934
:10078000086010BD0800001000C009200C00001017
:10079000040000100D00001000C00240F00F801F88
:1007A0003C00001018000010100021000040034021
:1007B00044000010256C64000E0000102DE9F0418B
:1007C0000646002410687529314616A511D0AFF3EE
:1007D0000080002803DAC0F1000013A507E03168AB
:1007E0008A0701D511A502E0490704D510A5012407
:1007F00001E0AFF3008000210A2306F1240707E09F
:10080000B0FBF3F203FB1200303078541046491C61
:100810000028F5D123462A463046BDE8F04100F0D5
:1008200065B80000000000002D0000002B00000053
:10083000200000002DE9F0410F4605460020286207
:100840002846E968884770B3252805D0D5E90121F5
:100850009047286A401CF2E7E96828460026884746
:100860006C2804460AD0682C08D04C2C35D06A2C51
:1008700031D0742C31D07A2C2FD016E0E96806469E
:1008800028468847B042044608D16C2E23D04FF446
:1008900080662846E9688847044606E06C2E03D047
:1008A0004FF4807601E01EE04026E4B1A4F141005F
:1008B000192802D8203446F400663A4621462846D4
:1008C0002E60FFF73DFC60B1012808D0FF1D27F026
:1008D00007070837B4E78026DBE70026D9E73F1D86
:1008E000AEE72046B2E7286ABDE8F0812DE9F0477F
:1008F0000D4699469246044600F124080168880690
:1009000004D5E06921F01001216000E00120A84237
:1009100002DDA0EB050700E00027A16907EB050257
:1009200002EB0900A1EB0000A0612078C00602D410
:100930002046AFF30080002608E0D4E901211AF830
:1009400006009047206A401C761C20624E45F4DB6E
:100950002078C0060AD52046AFF3008006E0D4E92F
:10096000012130209047206A401C2062381EA7F1E8
:100970000107F4DC07E0D4E9012118F805009047ED
:10098000206A401C2062281EA5F10105F3DC2046E8
:10099000AFF300802078000602D50220BDE8F08782
:1009A0000120FBE70A6802F8010B0A6070477546F0
:1009B00000F028F8AE4605006946534620F00700CF
:1009C000854618B020B5FFF7E1FBBDE820404FF0A9
:1009D00000064FF000074FF000084FF0000B21F029
:1009E0000701AC46ACE8C009ACE8C009ACE8C009F6
:1009F000ACE8C0098D4670470446AFF3008020463E
:100A0000FFF7B0FB0048704748000010014918206C
:100A1000ABBEFEE726000200704700003C0A000063
:100A2000000000104800000008010000840A0000D7
:100A300048000010600200002401000000E1F505FC
:100A4000000000000000000000003434353435346C
:100A500035000000300000003000000030000000D1
:100A600020000000280000000C000000060000002C
:100A700001000000800000000000000000000000F5
:040A80000000000072
:040000050000017185
:00000001FF
